:100000000C9432060C9479060C9479060C94913178
:100010000C9479060C9479060C9479060C94790664
:100020000C9479060C9479060C942B170C942C1CC8
:100030000C94A6280C9479060C9479060C947906F5
:100040000C9479060C9479060C9479060C94790634
:100050000C9479060C9402180C9479060C94790689
:100060000C9479060C9479060C9479060C94790614
:100070000C9479060C9479060C9479060C94790604
:100080000C9479060C9479060C9479060C947906F4
:100090000C9479060C9479060C9479060C947906E4
:1000A0000C9479060C9479060C94790605010902E2
:1000B000A10185020901A1000509190129081500FE
:1000C0002501950875018102050109300931158165
:1000D000257F95027508810609381581257F9501D0
:1000E00075088106050C0A38021581257F95017572
:1000F000088106C0C005010980A101850319012AF4
:10010000B700150126B700950175108100C0050CD8
:100110000901A101850419012AA002150126A002E6
:10012000950175108100C005010906A1018505052D
:100130000719E029E71500250195087501810205D9
:1001400007190029EF1500250195F07501810205B9
:10015000081901290595057501910295017503910D
:1001600001C00660FF0961A1010962150026FF00B8
:100170009520750881020963150026FF00952075FA
:10018000089102C005010906A101050719E029E748
:1001900015002501950875018102950175088101F9
:1001A0000507190029FF150026FF0095067508812F
:1001B000000508190129059505750191029501753C
:1001C000039101C0000000000000000000000000DA
:1001D000000000000000000000000000000000001F
:1001E00000000000000000007E0F00D4FFFFFFC7EA
:1001F0000000007800000000000000002A2B28000A
:1002000000000000000000000000000000000029C5
:10021000000000002C1E3420212224342627252E05
:10022000362D3738271E1F2021222324252633333D
:10023000362E37381F0405060708090A0B0C0D0E69
:100240000F101112131415161718191A1B1C1D2F35
:100250003130232D350405060708090A0B0C0D0E55
:100260000F101112131415161718191A1B1C1D2F15
:100270003130354C00DA0281FFD9F1DB20A4A62E03
:10028000AF00A0C000A1C800AED580A81FD3004019
:100290008D14200000047F3F1F64321464321478F0
:1002A0003C1E1E140A0541646A757374005261692C
:1002B0007365004C6F7765720044656661756C7498
:1002C000004C617965723A20008081828384858642
:1002D0008788898A8B8C8D8E8F9091929394A0A120
:1002E000A2A3A4A5A6A7A8A9AAABACADAEAFB0B176
:1002F000B2B3B4C0C1C2C3C4C5C6C7C8C9CACBCCD7
:10030000CDCECFD0D1D2D3D40000AE0001010101B7
:1003100001010101010202020202020202020303C0
:100320000303030303030404040404040405050590
:100330000505060606060607070707070808080852
:10034000090909090A0A0A0B0B0B0C0C0C0D0D0DFF
:100350000E0E0E0F0F0F1010111111121213131495
:1003600014151516161717181819191A1A1B1B1C0D
:100370001D1D1E1E1F202021222223242425262667
:10038000272829292A2B2C2D2D2E2F30313232339C
:100390003435363738393A3B3C3D3E3F40414243A5
:1003A0004445464748494A4C4D4E4F505153545589
:1003B0005658595A5B5D5E5F616264656668696B39
:1003C0006C6D6F7072737577787A7B7D7E808283B7
:1003D0008587888A8C8E8F91939596989A9C9EA0FB
:1003E000A2A3A5A7A9ABADAFB1B3B5B7BABCBEC008
:1003F000C2C4C6C9CBCDCFD1D4D6D8DBDDDFE2E4D1
:10040000E7E9EBEEF0F3F5F8FAFDFFFFAA7F5540C0
:100410002223252628292A2C2D2F30323335363811
:100420003A3B3D3E4042434547494A4C4E5051536A
:100430005557595A5C5E6062646668696B6D6F718E
:10044000737577797B7D7F81838587898A8C8E9090
:10045000929496989A9C9E9FA1A3A5A7A8AAACAE99
:10046000AFB1B3B4B6B8B9BBBCBEBFC1C2C3C5C6D9
:10047000C7C9CACBCCCDCED0D1D2D2D3D4D5D6D782
:10048000D7D8D9D9DADADBDBDBDCDCDCDCDCDDDDC0
:10049000DDDDDCDCDCDCDCDBDBDBDADAD9D9D8D7B0
:1004A000D7D6D5D4D3D2D2D1D0CECDCCCBCAC9C752
:1004B000C6C5C3C2C1BFBEBCBBB9B8B6B4B3B1AF89
:1004C000AEACAAA8A7A5A3A19F9E9C9A9896949229
:1004D000908E8C8A89878583817F7D7B7977757300
:1004E000716F6D6B6968666462605E5C5A595755DE
:1004F0005351504E4C4A4947454342403E3D3B3A9A
:100500003836353332302F2D2C2A29282625232220
:100510002B0014001A00080015001700E00004006A
:100520001600070009000A00E1001D001B0006007C
:1005300019000500000000000000E300105F2C001F
:100540002A00130012000C0018001C0034003300B5
:100550000F000E000D000B00290038003700360098
:1005600010001100000000000000E600115F2800EC
:100570002B001E001F00200021002200E0000000D0
:100580000000000000000000E1000000000000008A
:1005900000000000000000000000E30001002C004B
:1005A0002A00270026002500240023000000000068
:1005B0004F005200510050000000000000000000F9
:1005C00000000000000000000000E600010028001C
:1005D0002B001E021F02200221022202E000000066
:1005E0000000000000000000E1000000000000002A
:1005F00000000000000000000000E30001002C00EB
:100600002A00270226022502240223023500310097
:1006100030002F002E002D003502310230022F0253
:100620002E022D02000000000000E600010028005C
:10063000005C00000000000000000000C25CC55C1F
:10064000C75CC95C00000000C35CC65CC85CCA5CD7
:1006500000000000000000000000E30001002C008A
:10066000000000000000000000000000000000008A
:10067000000000000000000000000000000000007A
:1006800000000000000000000000E600010028005B
:1006900000AF09025B00030100A0FA090400000199
:1006A0000301010009211101000122400007058119
:1006B00003080001090401000203000000092111E0
:1006C0000100012222000705820320000107050323
:1006D00003200001090402000103000000092111A8
:1006E00001000122B6000705840320000112010069
:1006F0000200000008534601000100010200010C45
:100700000343006F0072006E006500000010036676
:10071000006F006F007300740061006E0000000441
:100720000309040000000000003E5B4F5B3E003EFA
:100730006B4F6B3E001C3E7C3E1C00183C7E3C1800
:10074000001C577D571C001C5E7F5E1C0000183C7F
:10075000180000FFE7C3E7FF00001824180000FF9F
:10076000E7DBE7FF0030483A060E00262979292604
:1007700000407F05050700407F05253F005A3CE704
:100780003C5A007F3E1C1C0800081C1C3E7F0014C5
:10079000227F2214005F5F005F5F0006097F017FF8
:1007A00000006689956A0060606060600094A2FF46
:1007B000A2940008047E04080010207E2010000887
:1007C000082A1C0800081C2A0808001E1010101017
:1007D000000C1E0C1E0C0030383E383000060E3E59
:1007E0000E060000000000000000005F0000000096
:1007F0000700070000147F147F1400242A7F2A12A8
:100800000023130864620036495620500000080790
:10081000030000001C224100000041221C00002AAD
:100820001C7F1C2A0008083E080800008070300069
:100830000008080808080000006060000020100898
:100840000402003E5149453E0000427F40000072D4
:1008500049494946002141494D33001814127F107F
:10086000002745454539003C4A494931004121119D
:10087000090700364949493600464949291E000002
:100880000014000000004034000000000814224161
:100890000014141414140000412214080002015919
:1008A0000906003E415D594E007C1211127C007F0A
:1008B00049494936003E41414122007F4141413E84
:1008C000007F49494941007F09090901003E414132
:1008D0005173007F0808087F0000417F410000201D
:1008E00040413F01007F08142241007F40404040CA
:1008F000007F021C027F007F0408107F003E414100
:10090000413E007F09090906003E4151215E007FFA
:10091000091929460026494949320003017F01038C
:10092000003F4040403F001F2040201F003F403814
:10093000403F00631408146300030478040300615B
:1009400059494D4300007F414141000204081020F5
:1009500000004141417F0004020102040040404088
:100960004040000003070800002054547840007FF6
:100970002844443800384444442800384444287FFC
:100980000038545454180000087E0902001824242A
:100990001C78007F080404780000447D400000209B
:1009A00040403D00007F102844000000417F40008F
:1009B000007C04780478007C0804047800384444FF
:1009C0004438007C1824241800182424187C007C47
:1009D000080404080048545454240004043F4424E8
:1009E000003C4040207C001C2040201C003C40304B
:1009F000403C004428102844004C9090907C0044D7
:100A000064544C44000008364100000000770000A8
:100A1000000041360800000201020402003C2623C7
:100A2000263C000000000000000000000000000064
:100A3000000000C0E0F0F8F81800C0F0FCFEFFFF76
:100A4000FFFFFFFFFF7E00000000000000000080AD
:100A5000C0E0E0E0E0E0E0E0E0C080000000008016
:100A6000C0E0E0E0E0E0E0E0E0C080000000E0E0C6
:100A7000C0C0E0E0E0E00000E0E0C0C0E0E0E0E0B6
:100A8000E0C0800000000080C0E0E0E0E0E0E0E0E6
:100A9000E0C0800000000000000000000000000036
:100AA00000E0F0F0F0E0ECEEF7F37020007C7C7CEE
:100AB0007E007E7E7E7F7F7F000080C0E07E5B4F79
:100AC0005BFEC00000C000DCD7DEDEDED7DC00C08D
:100AD0000000000000000000000000000000000016
:100AE000000000000000000000000000F8FCFEFF15
:100AF000E000FFFFFFFFFFFF80FFFFFFFFFFFFFFA3
:100B0000FFFF1F0701000000000000000000FFFFC2
:100B1000FF8100000000000081C3C3C30000FFFF8D
:100B2000FF8100000000000081FFFFFF0000FFFFC9
:100B3000FF01000000000000FFFFFF0100000000B7
:100B400001FFFFFF0000FFFFFF9D1C1C1C1C1C1C65
:100B50009DDFDFDF0000000000000000000000005B
:100B6000000F1F3F7F7F7F7F7F3F1E0C001F1F1FD7
:100B70003F003F3F3F7F7F7F00307B7F78302020EA
:100B800030787F3B0003000F7F0F0F0F7F0F0003B4
:100B90000000000000000000000000000000000055
:100BA000000000000000000000000000030F1F3FD5
:100BB0003F3F3F1F1F3F3F7F7F7F3F3F1F3F7F7F65
:100BC0007F7F7C7878381C0F000000000000000157
:100BD00003070707070707070703010000000001D5
:100BE00003070707070707070703010000000707B8
:100BF00007000000000000000707070000000000D9
:100C0000000707070000000103070707070707079A
:100C100007030100000000000000000000000000C9
:100C200000000000000000000000000000000000C4
:100C300000000000000000000000000000000000B4
:100C400000000000000000000000000000000000A4
:100C50000000000000000000000000000000000094
:100C60000000000011241FBECFEFDAE0DEBFCDBFD1
:100C700004B603FE27C08091290690912A06A09110
:100C80002B06B0912C068730904BA740B04BD1F487
:100C90001092290610922A0610922B0610922C060A
:100CA00014BE84B7877F84BF0FB6F894A89580914F
:100CB0006000886180936000109260000FBEE0E0E9
:100CC000F8E3099512E0A0E0B1E0EEE7FEE602C02D
:100CD00005900D92A831B107D9F726E0A8E1B2E05E
:100CE00001C01D92A932B207E1F70E94CD280C94F1
:100CF000F7360C940000FC01AC014C5F5F4F8FEFA6
:100D000091E32191822728E030E087FF09C0880F16
:100D1000892721503109C9F7E417F50791F708959C
:100D2000880FF7CFE8EDF0E080818E7F808310920E
:100D3000E2001092DA001092E100A0EEB0E08C9197
:100D400081608C9380818F77808319BCA7EDB0E0A0
:100D50008C918E7F8C9380818F7E80831092EB03A9
:100D600008952091E4003091E50095E6A9012091D5
:100D7000EC00822F817020FF06C08091E80080FF88
:100D800006C080E008952091E80022FD1AC08091FD
:100D90001004882389F0853089F08091EB0085FD6F
:100DA0000FC02091E4003091E50042175307F9F29B
:100DB0009150E1F684E0089582E0089583E008957B
:100DC00081E00895EF92FF920F931F93CF937C01E0
:100DD0008B010E94B106C82F811117C08091E800D5
:100DE00085FD0BC08091E8008E778093E8000E941B
:100DF000B106882399F3C82F08C0F70181917F01BC
:100E00008093F1000150110949F78C2FCF911F9168
:100E10000F91FF90EF9008958091120487FF13C007
:100E20008091E80082FF06C08091E8008B77809374
:100E3000E80004C0809110048111F2CF08958091E0
:100E400010048823D9F38091E80080FFF8CF8091C7
:100E5000E8008E77ECCF982F9093E900242F762F1F
:100E600050E0891731F07091EC002091ED00509125
:100E7000F00021FD07C09F5F973071F78093E90074
:100E800081E008953091EB003E7F3093EB0030918C
:100E9000ED003D7F3093ED003091EB0031603093F9
:100EA000EB007093EC002093ED005093F000209144
:100EB000EE0027FDE0CF80E00895CF92DF92EF9221
:100EC000FF920F931F93CF93DF93C8EDD0E08881FB
:100ED0008F7E8883E7EDF0E080818160808384E00D
:100EE00082BF81E08093EB0388818E7F888302EE4E
:100EF00010E0F80110821092DA0081EEC82ED12C99
:100F0000F601108288818F77888388818068888342
:100F100088818F7D888319BC10921004109211046F
:100F200010920F0410920E0490EEE92EF12CF701AE
:100F300080818B7F808388818160888342E060E04C
:100F400080E00E942B07F60180818E7F8083F8016C
:100F5000808181608083808188608083F7018081C7
:100F60008E7F8083888180618883DF91CF911F91FC
:100F70000F91FF90EF90DF90CF900895FC0180914A
:100F800018049091190486179707A0F06115710550
:100F900029F49091E8009E779093E80090E0611525
:100FA000710551F4911108C08091E80082FF34C0AE
:100FB00080E00895BC01F2CF809110048823C1F134
:100FC0008530C1F18091E80083FD30C08091E80058
:100FD00082FDEACF8091E80080FFE1CF8091F300AD
:100FE0002091F200382F6115710519F02830310574
:100FF00058F091E02830310509F090E02091E800A8
:101000002E772093E800CBCF81918093F10061503F
:1010100071092F5F3F4FE7CF80911004882341F083
:10102000853041F08091E80083FFBECF81E00895D4
:1010300082E0089583E008958091ED03089587E7A5
:1010400097E7909301088093000888E19AE00FB633
:10105000F894A895809360000FBE90936000FFCF36
:101060002FB7F8946091E2037091E3038091E40359
:101070009091E5032FBF089520914D012223C9F0DF
:101080002091E60327FF15C0E62FE695E695E69545
:10109000EE31D8F4E80FF92FF11D677021E030E050
:1010A00001C0220F6A95EAF72095828128232283C6
:1010B0000895FC01329608962191621303C0DF0166
:1010C00011971C92E817F907B9F7089520914D017F
:1010D0002223C1F02091E60327FF14C0E62FE695F6
:1010E000E695E695EE31F8F4E80FF92FF11D6770FB
:1010F00021E030E001C0220F6A95EAF78281822B5D
:1011000082830895FC0132962FEF30E041916417FD
:1011100051F02F3F19F4411101C0232F3F5F3630AA
:10112000A9F72F3F09F40895820F911D27FD9A9585
:10113000FC01628308952091DB033091DC032817C2
:10114000390771F09093DC038093DB03E091D903BE
:10115000F091DA03309721F00084F185E02D0994B5
:1011600008952091D7033091D8032817390771F0DB
:101170009093D8038093D703E091D903F091DA03D9
:10118000309721F00680F781E02D09940895FA0147
:10119000811101C0FB0109940895E4E2F3E011829A
:1011A00082818460828308958091CC03982F9E7FF2
:1011B00061F4817082608093CC038091CF03893782
:1011C00018F088E78093CF0308958A34B0F38170D4
:1011D0008864F1CFAF92BF92DF92EF92FF920F93AC
:1011E0001F93CF93DF93082F162FE901E42FF0E030
:1011F000E55FFC4F611110C0E4915E2F4E2F4983D3
:10120000E8835A83DF91CF911F910F91FF90EF9068
:10121000DF90BF90AF900895E62EF12C4491D42E2C
:10122000E42FF0E026E0829FC00111242FEF30E090
:10123000B9010E940B33802F90E0880F991F55E56C
:10124000569FD001579FB00D11248A1B9B0B982FDE
:10125000990F890F5901AE18BF08AE9ED001AF9EFD
:10126000B00DBE9EB00D11245B2F189F800111247C
:10127000012F11275901A01AB10AAE9E8001AF9E1D
:10128000100DBE9E100D11245901A81AB108AE9C74
:10129000C001AF9C900DBE9C900D1124892F992701
:1012A000281B390B2E9FC0012F9F900D3E9F900D44
:1012B0001124E92F62307105A1F050F46115710518
:1012C00009F49DCF6130710581F0EB2F512F97CF3D
:1012D0006430710569F080F06630710509F48FCFD4
:1012E000F4CFE42F4B2F592F8ACFE42F412F87CFF4
:1012F000EB2F542F492F83CF4B2F5D2DE12F7FCF25
:1013000040911A03803F59F480911B0387FF0DC061
:1013100010921B0341110BC01092120308C0813FB1
:1013200081F480911B0318169CF3442381F0809173
:101330001C0390911D03892B09F05AC010921103D0
:101340000895823F49F447FFF0CF10921A0380912D
:101350001B038111ECCFE0CF833F19F41416ACF3DB
:10136000E4CF90911C03893F29F41916F4F61092EA
:101370001C03DBCF8A3F19F497FFD7CFF8CF9091AA
:101380001D038B3F29F497FFD0CF10921D03CDCFC3
:101390008C3F19F41916CCF3C8CF9CE0980F953008
:1013A00090F4845F990B21E030E0B90102C0660F30
:1013B000771F8A95E2F7CB018095909119038923D5
:1013C00080931903B2CF8D3F31F4809113038E7F48
:1013D00080931303AACF8E3F21F4809113038D7F56
:1013E000F7CF8F3F09F0A1CF809113038B7FF0CF10
:1013F00008958091130380FD16C081FD16C082FD03
:1014000016C0809111038823A1F0883280F428E06F
:10141000829FC001112468E270E00E943933862F58
:10142000672B39F0089582E0089584E0089588E0FC
:10143000089581E008958091130380FD14C081FD1B
:1014400014C082FD16C080911203882381F08A3077
:1014500080F42FE0829FC00111246AE070E00E94B6
:101460003933862F089583E0089587E0089585E055
:1014700008958FE00895803F31F40E941B0A819502
:1014800080931B030895813F19F40E941B0AF8CF33
:10149000823F31F40E941B0A819580931A030895BC
:1014A000833F19F40E941B0AF8CF893F29F40E9458
:1014B000F90980931C0308958A3F21F40E94F909D9
:1014C0008195F7CF8B3F31F40E94F9098195809384
:1014D0001D0308958C3F19F40E94F909F8CF9CE090
:1014E000980F953070F4845F990B21E030E001C0D3
:1014F000220F8A95EAF780911903822B80931903B2
:1015000008958D3F31F4809113038160809313031C
:1015100008958E3F21F4809113038260F7CF8F3FAF
:10152000B9F7809113038460F1CF80E00895789437
:101530000895F894E82FE295EF70F0E031A1282F9C
:101540002F7081E090E001C0880F2A95EAF7982F6C
:101550009095932391A392A1892B82A30C94970A2F
:101560009091E60392FF06C0282F28712830F9F4E5
:10157000877F846093FF06C0282F28712831F1F4FB
:10158000877E84612091E70320FF06C0382F3871E1
:101590003830D9F4877F816021FF06C0282F287159
:1015A0002831D1F4877E816194FD877E0895282FAC
:1015B00024712430F9F68B7F8860DCCF282F2471CA
:1015C000243101F78B7E8861DDCF382F31713130C6
:1015D00019F78E7F8860E0CF282F2171213121F704
:1015E0008E7E8861E1CFCF93DF93EC018238910545
:1015F000A9F1D8F58133910509F496C048F58932EF
:10160000910509F48AC08A9709F495C0C11521E5AE
:10161000D20708F0BCC0C11530E5D30708F014C1EB
:10162000C83ED10508F09CC0C03ED10560F5C83A5F
:10163000D10508F087C0C53AD10508F0FDC0C1301A
:10164000D10509F12097F9F0C430D105E0F440C08C
:101650008533910509F45AC0C997C1F68091E60314
:10166000837089F0C0EED0E00EC0833E910599F101
:1016700070F4803E910501F1823E910539F680912A
:10168000E60382FD21C0CE01DF91CF910895863E11
:10169000910561F1873E910571F1843E910509F054
:1016A000B5CF8091E70381FFEECF8091E603C7EECF
:1016B000D0E084FD0DC0E7CF8091E60380FD12C12C
:1016C0009091E70390FFDFCFC3EED0E084FFDBCF44
:1016D000D0E0C0E0D8CF8091E60382FD06C19091B2
:1016E000E70390FDBFCF84FFCECFF2CF8091E6031A
:1016F00083FDDDCFC8CF8091E60383FDF9C09091D3
:10170000E70391FFF0CFC4EED0E0BDCF8091E603B8
:1017100085FFB9CFC9E2D0E0B6CF8091E60385FF5F
:10172000B2CFC5E3D0E0AFCF8091E60386FFABCF69
:10173000CAE2D0E0A8CF8091E60386FFA4CFC1E340
:10174000D0E0A1CFCF3BD10518F6C85AD0E0CC0FDE
:10175000DD1FC256DE4F0990D881C02DD46493CFCF
:10176000C11540E2D40758F4C11581E0D80708F04C
:101770008ACFC03FD10508F4ABCFD06584CFC11567
:1017800090E4D90708F4A4CFDF70D06A7CCFC115EC
:1017900025E5D20700F5C11534E5D30708F08AC066
:1017A000C11543E5D40708F071C0C11582E5D8071B
:1017B00008F467C0CE018370992721E030E002C0B1
:1017C000220F331F8A95E2F7C695C69580E2C89F1F
:1017D000E001112452C0C11599E5D907A8F4C1153B
:1017E00028E5D20708F06BC0C11536E5D30708F02D
:1017F0006FCF8C2F0E94B00AC82FD0E0DC2FCC27EF
:10180000CC27DF71D0623FCFC1154AE5D40708F479
:101810005BC0CE0190568115904208F059CF8D2FB4
:101820008F710E94B00A90E0982F882788279F71B7
:101830009C012C2BE901E6CFC55AD0E0C556DE4FFE
:10184000C881D0E0D0641FCFCE01E4E096958795A3
:10185000EA95E1F783702C2F26952695237040E2B8
:10186000249F90011124382B8C2F8370C1E0D0E08D
:1018700002C0CC0FDD1F8A95E2F7C22BD32BDC68A8
:1018800002CFDC2FCC27C16FD06AFDCECE01837092
:10189000992721E030E002C0220F331F8A95E2F73A
:1018A000C695C69590E2C99FE0011124C22BD32BA7
:1018B000DA68E9CEDC2FCC27C46FD06AE4CEDC2F07
:1018C000CC27C06FD06ADFCE8C2F8F700E94B00AF9
:1018D00034E0D695C7953A95E1F7CF709C2FEC018F
:1018E000D069D1CEC9E3D0E0CECEC2EED0E0CBCE2F
:1018F000C6EED0E0C8CE80918A02811110928A0291
:1019000008958091890290918802892B9091870295
:10191000892B80931A0290918A029923A1F0892B36
:1019200080931A0280914D01882341F18091E60352
:1019300087FF24C08EE1ECE1F2E090E0815000F5F9
:1019400091110E947B0CE091D903F091DA0330975A
:10195000E1F080914D01882359F08091E60387FFE3
:1019600007C080911A0280931B0285E080931A02BF
:101970000280F381E02D8AE192E0099486E0DBCFDA
:1019800021912223D9F29F5FD9CF089580918502BA
:1019900090915402981301C008958F5F8770FACF19
:1019A000E92FEE0FE90FEE0F8E0F982F97708695A7
:1019B0008695869523E0829FF0011124E45CFD4F1B
:1019C00050E040E080E0219130E0092E02C03695E1
:1019D00027950A94E2F721703327042E01C0220FC5
:1019E0000A94EAF7822B4F5F5F4F4330510559F756
:1019F0000895E92FEE0FE90FEE0F8E0F982F9770D5
:101A000041E001C0440F9A95EAF786958695869540
:101A100093E0899FF0011124E45CFD4F30E020E069
:101A200070E05191DF011197CB01022E02C0969513
:101A300087950A94E2F7817081958527842385270D
:101A40008C932F5F3F4F2330310559F7089588233A
:101A500041F08095909189028923809389020C94AA
:101A6000810C0895882339F090918902982B9093E6
:101A700089020C94810C0895CF93DF93682F81E045
:101A80006A3019F06D3029F480E0DF91CF910C9429
:101A9000CB0D809127069091280626E0FC01A1E25B
:101AA000B6E001900D922A95E1F7603E08F45AC025
:101AB00026E0FC0111922A95E9F7C0912706D09102
:101AC000280646E050E0BE0181E296E00E94FA332B
:101AD0009E0121523440892B41F1C90145E0969580
:101AE00087954A95E1F741E050E0BA0102C0660FE0
:101AF000771F8A95E2F7CB0160911F047091200453
:101B0000862B972BB9016B5F7F4FE5E07695679544
:101B1000EA95E1F702C0440F551F6A95E2F7842B5E
:101B2000952B9093200480931F042A5F3F4F409190
:101B30001E04642F70E0C9010E940B33481B46301D
:101B400010F4240F311D211572E0370710F030E03A
:101B500020E02F5D3B4F3093280620932706DF912E
:101B6000CF910895F6E06F9FB00111246D5D784F1D
:101B700046E050E00E94E433A0CFCF93DF93EC0126
:101B8000FE018491811103C0DF91CF9108950E94DD
:101B90003C0D2196F5CFCF93382FE0912706F09199
:101BA0002806E152F44020911E04622F70E0CF011C
:101BB0000E940B33281B822F332361F066E00E94C2
:101BC0001F33C82FC15010F4CF91089580E20E94B6
:101BD0003C0DF8CF9F01280F311D2115324018F020
:101BE00080E0F0E0E0E08E0F9F2F911D8F5D9B4F16
:101BF0009093280680932706E7CFCF92DF92EF924B
:101C0000FF920F931F93CF93DF936C017B0164E6E8
:101C100070E088E70E94E82FEC0197FD12C010E009
:101C200000E0F601E00FF11F849164E670E00E948D
:101C30006230EC01892B29F40F5F1F4F0E151F0531
:101C400081F70E94E530CE01DF91CF911F910F9176
:101C5000FF90EF90DF90CF900895CF93C091D50380
:101C60008091D6038823D1F00E943008605A7541D4
:101C70008F4F9F4F6093D1037093D2038093D30310
:101C80009093D403C11108C062E070E080E996E04F
:101C90000E94FD0D892B29F0C091D5038C2FCF9187
:101CA000089581E08093D503F7CF9091100494308C
:101CB00029F58093E8037093EA036093E903909316
:101CC000E9008FEF9091E800815095FD06C095EDF9
:101CD0009A95F1F700008111F5CF8091E80085FF1A
:101CE0000DC050E040E063E070E088EE93E00E94B9
:101CF000E2068091E8008E778093E8000895BC01A9
:101D000084E00C94550EBC0183E00C94550E9C01AC
:101D100084E08093E9009FEF8091E800915085FD79
:101D200006C085ED8A95F1F700009111F5CF8091FD
:101D3000E80085FF0CC050E040E066E070E0C901BB
:101D40000E94E2068091E8008E778093E800089573
:101D5000CF93DF93EC0180914D018823B1F1809105
:101D6000E60387FF32C060E284E08093E9008FEFF2
:101D70009091E800815095FD06C095ED9A95F1F798
:101D800000008111F5CF8091E80085FF1BC0809194
:101D90004D0170E050E040E0811104C050E040E0AF
:101DA00068E070E0CE010E94E2068091E8008E7744
:101DB0008093E80080E2FE01AEEEB3E001900D9268
:101DC0008A95E1F7DF91CF91089568E081E0CDCF6A
:101DD000609149018091CC0380FF20C0809148012F
:101DE00043E0849FC0011124865D9C4F539A2BB120
:101DF000277F3BB138605FB7F894FC01649FE00D2A
:101E0000F11D1124BF0168177907D1F45FBF8FE579
:101E100094E00197F1F700C00000089580914A0115
:101E200090914B0123E0829FF0011124E65DFC4F6D
:101E30008917A0F61182108212828F5F3396F8CF35
:101E4000FC014191CF01E8E03BB9000000C047FF31
:101E50002BB9440F000000C000C000C02BB900C067
:101E6000EA9591F7D0CF0F931F93CF93DF93EC01B7
:101E700010E000E090914C019017110609F06CF40D
:101E80000E94E80E8C8190E00196817099278C83E6
:101E9000DF91CF911F910F91089520914A01A801E0
:101EA000420F511D9A01220F331F240F351F265D4B
:101EB0003C4F4C816091CE038091CD039695901755
:101EC000110669F064F0442361F04091CF03493773
:101ED00008F048E70E94EA080F5F1F4FCBCF44236A
:101EE000A1F340E0F7CF8F929F92AF92BF92CF9233
:101EF000DF92EF92FF920F931F93CF93DF93EC014A
:101F00004C81042F10E09801D8010E9484339B017A
:101F1000AC010E949A334B015C01E0E2F0E0E01B6F
:101F2000F10BA5E5B0E0AC019B010E949A336B0177
:101F30007C019F01DF010E947C339B01AC010E9468
:101F4000A5339B01AC01280D391D4A1D5B1DC7013E
:101F5000B6010E944D33F22E822F90E039E23F15F8
:101F600060F143E0249F9001112435952795122FAD
:101F7000109500E085E5E82EEF1880914C010817D8
:101F800058F10E94E80E9C8181E0992319F090326B
:101F900019F48FEF8093470180914701890F8C835B
:101FA000DF91CF911F910F91FF90EF90DF90CF9035
:101FB000BF90AF909F908F90089525E530E0B901D4
:101FC000681B790B9B01220F331F260F371F37FF2A
:101FD000CCCF2F5F3F4FC9CF8E2D01FD8F2D20918C
:101FE0004A01622F600F7727771F9B01220F331F53
:101FF000260F371F265D3C4F412F193708F048E761
:102000006091CE030E94EA080F5FB7CFEF92FF9274
:102010000F931F93CF93DF93EC018C81811109C043
:1020200081E08C831092280392E090934601809384
:10203000450180914A0190914B0123E0829FF0017C
:102040001124E65DFC4F891768F110E003E0609110
:102050004C01161768F10E94E80E8091450120910D
:102060002803280F2093280390914601980F9093FE
:102070004601191654F4022E000C330B40914C010A
:102080004150550B2417350734F081958093450155
:10209000813009F41C82DF91CF911F910F91FF9045
:1020A000EF9008951182108212828F5F3396CBCF0A
:1020B000E12EF12C70E0C7010E94393320914A01D2
:1020C000820F482F50E020912803022E000C330B82
:1020D000E216F306D4F020914601022E000C330BD9
:1020E0002E153F0594F0809F90011124265D3C4FF2
:1020F0004091CF03493708F048E76091CE038091C3
:10210000CD030E94EA081F5FA2CFFA01EE0FFF1F66
:10211000E40FF51FE65DFC4F118210821282F3CFAF
:102120008F929F92AF92BF92CF92DF92EF92FF92E7
:102130000F931F93CF93DF93EC018A81BB24BA9452
:1021400080FD02C0BB24B394A0904C018C8181110E
:1021500009C081E0B81228C08FEF8A0D8093270351
:1021600081E08C83F12CE12C46E3842EEA14F8F014
:102170000E94E80E8091270391E0B91262C081119C
:102180005BC080914C018150809327031C82DF91BA
:10219000CF911F910F91FF90EF90DF90CF90BF9064
:1021A000AF909F908F90089510922703D9CF009100
:1021B0004A010E0D1F2D111DC801880F991F080F10
:1021C000191F065D1C4FF80111821082128234E043
:1021D000C32ED12C912C80912703890D873344F194
:1021E000682D0E942B33892F082E000C990B8E1519
:1021F0009F05A9F48091CF038C9DA0018D9D500D6A
:1022000011245595479555954795493708F048E766
:1022100098016091CE038091CD030E94EA089B0C47
:10222000F1E0CF1AD108B9F68FEFE81AF80A9ECF7D
:1022300087FFDACF8A0DD8CF815080932703BC82E5
:10224000A6CF90E0019660914C0170E00E94393376
:10225000809327038C839BCFEF92FF921F93CF93A2
:10226000DF93EC0110E0EE24EA94F12C60914C0134
:10227000161770F00E94E80E9A818C8190FF2AC098
:102280008F5F8C83DF91CF911F91FF90EF90089526
:1022900020914A01422F410F5527551FCA019A012B
:1022A000220F331F280F391F265D3C4F4091CF036B
:1022B000493708F048E770E0C7010E943933962F8C
:1022C0008C816091CE03199F800D11240E94EA0831
:1022D0001F5FCCCF8150D5CF9091CC0390FF14C01D
:1022E00090914A0120914B0133E0939FF00111241A
:1022F000E65DFC4F921710F00C94E80E818360832A
:1023000042839F5F3396F6CF08950F931F93CF9329
:10231000DF9300D00F92CDB7DEB78C0180912903F7
:1023200081110AC09E012F5F3F4F48E76FEF0E9467
:10233000EA088A8180932903F8016481613069F099
:102340008091290340E0662361F040E0623011F49F
:102350004091290380E060E004C06091290340E0DF
:1023600080E00E946C11F801848190E0019663E0A6
:1023700070E00E94393384830F900F900F90DF91AB
:10238000CF911F910F910895CF93DF9300D00F92BB
:10239000CDB7DEB79091CC0390FF0DC0493708F060
:1023A00048E79E012F5F3F4F0E94EA084B816981F9
:1023B0008A810E946C110F900F900F90DF91CF9146
:1023C0000895CF93DF93EC01ECECF3E0438162815D
:1023D0008C810E94C4118C818F5F8C83DF91CF919F
:1023E0000895CF93DF93EC01EC81F0E0E05FFB4FC9
:1023F0004491ECECF3E0628181810E94C4118C81F4
:102400008F5F8C83DF91CF910895ECECF3E08081B6
:102410008E7F80830E94CD08E4E2F3E082818160B8
:1024200082832FEF80E792E0215080409040E1F7D7
:1024300000C000000C94E80E9F92AF92BF92CF9222
:10244000DF92EF92FF920F931F93CF93DF937C0164
:102450005B016A018091B40201E010E08A3010F45F
:102460000AE010E0C1E0D0E0F894B501C701F60140
:102470000995982E0E94970A911004C021960C1776
:102480001D076CF4892DDF91CF911F910F91FF9063
:10249000EF90DF90CF90BF90AF909F900895CC9F2A
:1024A0009001CD9F300D300D112490E080E045E388
:1024B0004A95F1F70000019682179307C1F7D4CF30
:1024C00080919202811110C08091D8008061809328
:1024D000D8008AE18A95F1F700C08091D90080FF89
:1024E0000AC081E08093920281E090919202913043
:1024F00009F080E0089582E0809392020E949206A3
:1025000010921004F1CF0F931F930E946012882342
:1025100021F01F910F910C9430080E943008009117
:10252000DD031091DE032091DF033091E003600FA3
:10253000711F821F931F1F910F9108950E946012B7
:10254000882351F0E091D903F091DA03309721F01C
:102550000190F081E02D099480E00895CF93DF93FE
:10256000C7EAD1E060E0CE010E94C3362196C115D2
:1025700084E0D807B9F7DF91CF9108956F927F92E9
:102580008F929F92AF92BF92CF92DF92EF92FF9283
:102590000F931F93CF93DF9380E1C82E85E0D82E51
:1025A00093E9E92EF12CE701C056D10936011BC091
:1025B000F50185909490692DC8010E94C336682D5D
:1025C000C80101960E94C33682E0A80EB11C0E5FBE
:1025D0001F4FC017D10761F78CE0680E711C2C9655
:1025E000CE15DF0529F08E010C5011095301E0CF03
:1025F0007E0180E6E80EF11C80E6C80ED11C83E166
:10260000E81682E0F80679F6DF91CF911F910F91DD
:10261000FF90EF90DF90CF90BF90AF909F908F9002
:102620007F906F900895CF93C82F6FEF811161E273
:1026300083E290E00E94C3366FEFC11161E184E252
:1026400090E00E94C3366FEFC11160E285E290E036
:10265000CF910C94C33680E00E94131360E086E2B1
:1026600090E00E94C3360E94BE120E94AE1281E02A
:102670000C941313CF93C091E703C2FB992790F9F1
:10268000981781F080FBC2F9C093E7036091E603DD
:1026900084E090E00E94C3366C2F82E290E0CF91FC
:1026A0000C94C336CF9108950F931F93CF93DF936C
:1026B000C42FD0E0CC0FDD1F2CE0629FC00DD11DD8
:1026C000112430E6839FC00DD11D1124CE018796C1
:1026D0000E94AF36082F10E0102F0027CE018896F9
:1026E0000E94AF369801282BC901DF91CF911F912D
:1026F0000F910895462F843038F4783028F46630EE
:1027000018F4672F0C94541390E080E00895CF9252
:10271000DF92FF920F931F93CF93DF936C01009191
:102720001D0480918B02082BC7E0D0E010E0FC2E46
:10273000C8010C2E02C0959587950A94E2F780FD9A
:102740000CC02197A0F7F12C8F2DDF91CF911F9115
:102750000F91FF90DF90CF900895B6018C2F0E94CB
:102760007A130E94F30A019761F3EECFCF93DF93C0
:10277000EC010E948713BE010E947A13DF91CF9172
:102780000C94F30AFC01808191810E94B613292FD9
:102790002F7092959F7092509E3078F4E92FF0E060
:1027A000E750F94C0C946F33803F19F020F4883EC9
:1027B00020F481E00895843FE1F380E00895883EAD
:1027C000C0F3813FD1F7F5CF822F86958695869508
:1027D000089583E290E00E94AF36813289F484E26A
:1027E00090E00E94AF36813159F485E290E00E947A
:1027F000AF3691E0803209F090E0892F8170089522
:1028000080E0FCCFCF9384E090E00E94AF36C82FE9
:1028100082E290E00E94AF36982F8C2FCF910895DE
:10282000CF92DF92EF92FF926B017C010E94D4085D
:10283000B701A60188E090E0FF90EF90DF90CF9085
:102840000C94D536AF92BF92CF92DF92EF92FF9267
:102850000F931F93CF93DF9300D00F92CDB7DEB7C6
:10286000082FF62E142FE22E9091CC0390FF3FC03C
:10287000E92FE695AE2FB0E0AC51BE4F8C9180931E
:1028800024039E7F923009F040C0493708F048E7A2
:102890009E012F5F3F4F6F2D802F0E94EA084B81D2
:1028A00069818A810E946C118091CD03801308C0D8
:1028B0008091CE038F1104C08091CF03811729F03E
:1028C000809126038260809326030093CD03F092CB
:1028D000CE031093CF03EE2051F06091CC037091A2
:1028E000CD038091CE039091CF030E9410140F90DE
:1028F0000F900F90DF91CF911F910F91FF90EF906C
:10290000DF90CF90BF90AF900895823019F410916E
:10291000CF03CACF863019F40091CD03C5CF8930DB
:10292000D9F3893109F6E9518E2F8170D82EE695B9
:10293000F0E0E55FFB4FA590B490C12CBB24609103
:102940004C01C61618F00E94E80EAECF2C2D30E0D8
:10295000A29EC001A39E900DB29E900D112470E026
:102960000E940B33802FD11016C0860F40914A0170
:10297000420F532F511D9A01220F331F240F351F71
:10298000265D3C4F412F193708F048E76F2D0E9414
:10299000EA08C394D4CF861BE9CFECECF3E0438183
:1029A00021E1421B08F440E021E0628181810C9426
:1029B0002214ECECF3E0438121E1420F08F44FEFE5
:1029C00021E0628181810C942214ECECF3E06281BD
:1029D00021E1621B08F460E021E0438181810C94D5
:1029E0002214ECECF3E0628121E1620F08F46FEF56
:1029F00021E0438181810C942214ECECF3E081818D
:102A000021E0438162818A500C942214ECECF3E0C3
:102A1000818121E043816281865F0C942214809140
:102A2000D003882319F081508093D0036091CC03A8
:102A30007091CD038091CE039091CF030C9410142C
:102A40008091D003833018F48F5F8093D00360911E
:102A5000CC037091CD038091CE039091CF030C9461
:102A60001014ECECF3E083E0808311828FEF82831B
:102A700088E783831482A4E2B3E012968C911297C4
:102A8000836012968C9360817181828193810C9412
:102A9000101469EE7EEF90E080E00E94E13660E085
:102AA00082E090E00E94C33660E083E090E00E9404
:102AB000C33610928B0260E084E090E00E94C3363F
:102AC00060E082E290E00E94C33660E085E090E042
:102AD0000E94C33660E086E090E00E94C3366FEF4C
:102AE00087E090E00E94C33640E050E0BA0188E001
:102AF00090E00E94D53660E08DE090E00E94C33601
:102B000040E050E0BA0188E190E00E94D53660E0F4
:102B100087E190E00E94C33640E050E0BA018CE1CA
:102B200090E00E94D53670E060E080E290E00E9484
:102B3000E13640E050E0BA0188E190E00E94D536ED
:102B400080E00E9413130E942B1340E050E0BA0172
:102B50008FE090E00E94D53640E050E0BA0183E17A
:102B600090E00C94D536CF93DF9300D000D0CDB752
:102B7000DEB740919B0250919C0260919D02709142
:102B80009E022FB7F8948091E2039091E303A09105
:102B9000E403B091E5032FBF841B950BA60BB70B85
:102BA00084369105A105B10568F10E9483126E5F1C
:102BB0007F4F8F4F9F4F69837A838B839C83809154
:102BC00017019091180181569D4F4091160150E0D8
:102BD0004530510510F044E050E0BE016F5F7F4F7B
:102BE0000E94073482E090E00E945732892B61F402
:102BF0000E94300860939B0270939C0280939D0218
:102C000090939E0281E001C080E00F900F900F90A2
:102C10000F90DF91CF910895CF93DF93CDB7DEB7BB
:102C200028970FB6F894DEBF0FBECDBF85E0ECEC61
:102C3000F3E0DE01119601900D928A95E1F7809103
:102C4000240390912503A09126038E839F83A88758
:102C500028854091B0025091B1026091B20270910A
:102C6000B3023FB7F8948091E2039091E303A091FF
:102C7000E403B091E5033FBF841B950BA60BB70B94
:102C800084369105A105B10510F4222319F1809134
:102C900021019091220181569D4F4091200150E0E9
:102CA0004930510510F048E050E0BE016F5F7F4FA2
:102CB0000E94073483E090E00E945732892BB1F4E0
:102CC0000E9430086093B0027093B1028093B20208
:102CD0009093B3021092260381E028960FB6F894E1
:102CE000DEBF0FBECDBFDF91CF91089580E0F5CF5D
:102CF0000F931F93CF93DF9300D000D00F92CDB7E7
:102D0000DEB78B0190E080E00E945732892B09F0FA
:102D100085C04091050150E04115510511F041E099
:102D200050E0609106017091070161567D4FCE0120
:102D300005960E9407344091970250919802609145
:102D4000990270919A022FB7F8948091E2039091C2
:102D5000E303A091E403B091E5032FBF841B950B1F
:102D6000A60BB70B84369105A105B10540F480EAA6
:102D700092E00E947B069D81891709F45FC081E083
:102D800090E00E945732892BC1F080E0409193027D
:102D9000509194026091950270919602F8014083DF
:102DA0005183628373830F900F900F900F900F9059
:102DB000DF91CF911F910F91089540910F0150E045
:102DC0004530510510F044E050E0609110017091E1
:102DD000110161567D4FCE0101960E94073480EAB1
:102DE00092E00E947B069D818913CFCF0E9430081C
:102DF00060939702709398028093990290939A023D
:102E000089819A81AB81BC818093930290939402D3
:102E1000A0939502B093960281E0B8CF80E04091F4
:102E2000A0025091A1026091A2027091A302498375
:102E30005A836B837C838111E3CFA8CF81E0EFCFEE
:102E400090E080E00E94BD36893E9E4F11F40C94C4
:102E5000E91380E008951F920F920FB60F9211248C
:102E60002F933F934F935F936F937F938F939F9392
:102E7000AF93BF93EF93FF938091E10082FF09C06E
:102E80008091E20082FF05C08091E1008B7F8093FA
:102E9000E1008091DA0080FF24C08091D80080FF9B
:102EA00020C08091DA008E7F8093DA008091D90073
:102EB00080FF9BC080E189BD82E189BD09B400FE2D
:102EC000FDCF81E0809310048091EB03811109C054
:102ED0000E9492060E945D078091E20084608093C8
:102EE000E2008091E10080FF17C08091E20080FF46
:102EF00013C08091E2008E7F8093E2008091E20017
:102F000080618093E2008091D80080628093D80035
:102F100019BC85E0809310048091E10084FF29C0F2
:102F20008091E20084FF25C080E189BD82E189BDF6
:102F300089B5982F917080FFFBCF8091D8008F7D4D
:102F40008093D8008091E1008F7E8093E100809192
:102F5000E2008F7E8093E2008091E20081608093A6
:102F6000E20080911104882309F445C084E0809335
:102F700010048091E10083FF27C08091E20083FF6D
:102F800023C08091E100877F8093E10082E08093FD
:102F90001004109211048091E1008E7F8093E10073
:102FA0008091E2008E7F8093E2008091E200806158
:102FB0008093E20042E060E080E00E942B07809175
:102FC000F00088608093F000FF91EF91BF91AF9186
:102FD0009F918F917F916F915F914F913F912F9131
:102FE0000F900FBE0F901F90189519BC10921004EF
:102FF0001092EB0376CF8091E30087FD93E09093EE
:103000001004B7CF78941F921FB61F9211248F938C
:103010009F93AF93BF938091E2039091E303A091BC
:10302000E403B091E5030196A11DB11D8093E20375
:103030009093E303A093E403B093E503BF91AF91B2
:103040009F918F911F901FBE1F9018959C014FB7A5
:10305000F8948091E2039091E303A091E403B0918E
:10306000E5034FBF821B930B08952FB7F89480910F
:10307000E2039091E303A091E403B091E5032FBF35
:1030800008950E94601281110C9435180E948312D9
:10309000CB0108956091CC03669570E04BE050E061
:1030A0008AE391E00E94ED33892B19F481E080934B
:1030B00025030E94411890931F0380931E03809163
:1030C000260384608093260308959091CC0390FF9B
:1030D0003BC0917081112EC092609093CC0380917F
:1030E0002603816080932603662351F06091CC0310
:1030F0007091CD038091CE039091CF030E94101464
:103100006091CC03669570E04BE050E08AE391E07B
:103110000E94ED33892BA9F00E94CD0881E08093B5
:10312000210320E04091CF036091CE038091CD0335
:103130000C942214853210F09864CFCF880F982B0E
:10314000CCCF0E944A18EACF08958091CC0386958F
:10315000815009F484E261E00C9465188091CC03FD
:1031600086958F5F853208F081E061E00C946518E8
:103170009091CC0390FF07C09695981720F0961772
:1031800010F40C94AE1861E00C9465180E94351888
:103190009C0190911A0380911B03982B21F030938E
:1031A00017032093160390911C0380911D03982B05
:1031B00021F03093150320931403E091D903F0918B
:1031C000DA03309749F082E0809318030480F58198
:1031D000E02D88E193E00994089590E080E00E945A
:1031E000B10890E080E00E949B0810928802109243
:1031F00087020E94810C86E0E8E1F3E0DF011D9286
:103200008A95E9F71092120310921103109213039A
:103210000C94C61880931D040C94ED1880911D0425
:10322000982F9670963019F488600C940A19877F4D
:10323000FCCF21E030E001C0220F8A95EAF720950B
:1032400080911D0482230C940A1990918602809526
:10325000892380938602282F277039F4282F082E7F
:10326000000C330B9217130621F49091E70392FFA1
:1032700007C08595859585950E941919109286023B
:10328000089521E030E001C0220F8A95EAF780918D
:103290001D04822B0C940A1980938B020C94ED1858
:1032A0001092890280914D01ECE1F2E0882359F0FF
:1032B0008091E60387FF07C08EE1DF011D928A95AA
:1032C000E9F70C94ED1886E0F8CF1F93CF93DF93C6
:1032D000CDB7DEB7AA970FB6F894DEBF0FBECDBF4D
:1032E00082E194E02091F100DC012D93CD01B4E066
:1032F0008A319B07B9F780911304833009F471C0B8
:10330000B8F4813009F448C0823009F4B2C0809129
:10331000E80083FF3AC180911204909113049A301F
:1033200008F033C1E92FF0E0E95FF84C0C946F33FB
:103330008A3009F48DC08B3009F470C0893039F7B8
:1033400080911204813219F780911604909117042C
:10335000009711F00297D9F68091E800877F80935B
:10336000E8008091E80082FF37C09091F3008091DF
:10337000F200029729F48091F1008B7F813021F4D3
:103380008091F1008093ED038091E8008B7780932A
:10339000E8000E940C07BBCF80911204813A09F02B
:1033A000B6CF8091E800877F8093E8008091160473
:1033B00090911704892B61F460E28EEE93E070E047
:1033C0000E94BE078091E8008B778093E8009FCF32
:1033D00060E090E080E0F3CF809110048111C1CFD4
:1033E00096CF80911204813A09F091CF8091160412
:1033F00090911704892B09F08ACF8091E800877F8C
:103400008093E8008091E80080FFFCCF80914D011F
:103410008093F1008091E8008E77B9CF80911204FB
:10342000813209F074CF8091160490911704892B92
:1034300009F06DCF8091E800877F8093E8000E94BB
:103440000C078091140480934D010E9450195FCFA6
:1034500080911204813209F05ACF8091E800877F71
:103460008093E8000E940C07809115048093EC0380
:103470004ECF80911204813A09F049CF8091E80043
:10348000877F8093E8008091E80080FFFCCF8091E7
:10349000EC03BECF803899F0823809F076C0809175
:1034A00016048F70873008F070C08093E900809117
:1034B000EB0085FB882780F91092E90006C0809117
:1034C0000E0490910F04911182609091E800977F13
:1034D0009093E8008093F1001092F1008091E80051
:1034E0008E77B5C1882309F4A2C1823009F04DC09E
:1034F000809114048111A6C1809116048F702FEF62
:10350000280F263008F041C08093E9002091EB009D
:1035100020FF98C1933031F48091EB00806280935A
:10352000EB0090C19091EB0090619093EB0021E053
:1035300030E001C0220F8A95EAF72093EA0010924A
:10354000EA008091EB008860EACF81111EC01091E3
:1035500014041F778091E3008078812B8093E3002F
:103560008091E800877F8093E8000E940C0780919B
:10357000E80080FFFCCF8091E30080688093E30047
:1035800082E0111183E0809310048091E80083FFB2
:103590000AC08091E800877F8093E8008091EB006B
:1035A00080628093EB00AA960FB6F894DEBF0FBE40
:1035B000CDBFDF91CF911F9108958058823028F7B9
:1035C00020911404309115042C3DE3E03E07A1F551
:1035D00083E08A838AE289834FB7F894DE011396E9
:1035E00020E03EE051E2E32FF0E050935700E491F9
:1035F00020FF03C0E295EF703F5FEF708E2F90E0E9
:10360000EA30C0F0C7968D939D932F5F243159F710
:103610004FBF8091E800877F8093E8006AE270E006
:10362000CE0101960E94BE078091E8008B778093BF
:10363000E800ABCFC096E7CF8091160490911704B5
:10364000432F55274330510509F44AC078F54130DE
:10365000510509F47AC08BE590E0E2E9F6E04230EA
:10366000510509F092CF2091E800277F2093E800D0
:1036700020911804309119048217930708F49C01D3
:1036800040E02115310509F065C0411163C080910A
:10369000E80082FDC9CF80911004882329F285308B
:1036A00019F28091E80083FFF2CFBECF413251057D
:1036B00009F43CC04232510509F067CF83309105CF
:1036C00008F063CFFC01EE0FFF1FE45FFD4F019098
:1036D000F081E02D875F9D4FDC018C9190E01AC056
:1036E000332721303105D1F02115310561F0223029
:1036F000310509F04ACFEFEFF6E0E4918E2F90E02C
:10370000EFEFF6E007C0EFE1F7E0E4918E2F90E0F5
:10371000EFE1F7E0009709F438CFA5CFEDE0F7E04F
:10372000E4918E2F90E0EDE0F7E0F4CF8330910547
:1037300008F02BCF880F991FFC01EE5EFD4F019022
:10374000F081E02D89E090E08ECF82E190E0EDEE17
:10375000F6E089CF80911004882309F465CF853085
:1037600009F462CF8091E80083FD5ECF8091E8008C
:1037700082FD8DCF8091E80080FF83CF9091F30090
:103780008091F2002115310519F08830910550F033
:1037900041E0089709F040E08091E8008E7780933F
:1037A000E8006FCF44914093F100319621503109E8
:1037B0000196E8CF803809F0E8CE8091E800877F55
:1037C0008093E800809111048093F10087CE8111ED
:1037D000DCCE10911404123008F0D7CE8091E800AE
:1037E000877F8093E800109311040E940C07112337
:1037F00011F084E005C08091E30087FDFACF81E0FD
:103800008093100442E061EC81E00E942B0742E2C9
:1038100061EC84E00E942B0742E261EC82E00E94AE
:103820002B0742E260EC83E00E942B07AECE809132
:103830001404813009F0A9CE81E0933009F080E0D2
:1038400080930F041092E9008091E800877F8093B5
:10385000E8000E940C0799CE1F920F920FB60F92AC
:1038600011242F933F934F935F936F937F938F9385
:103870009F93AF93BF93CF93DF93EF93FF93D09139
:10388000E900DF708091EC00C82FC17080FDC0E8B6
:103890001092E9008091F000877F8093F000789487
:1038A0000E9465191092E9008091F0008860809371
:1038B000F000CD2BCF70C093E900FF91EF91DF9125
:1038C000CF91BF91AF919F918F917F916F915F91B8
:1038D0004F913F912F910F900FBE0F901F90189511
:1038E0008823B1F19CEF980F913A38F4682F8AE160
:1038F00092E00E943C080C94810C90E2980F983062
:1039000088F4877021E030E0A90102C0440F551F00
:103910008A95E2F7CA018095909189028923809364
:103920008902E9CF9BE5980F933020F490E080E086
:103930000C94B10898E5980F973120F490E080E05E
:103940000C949B08803F20F00E9480090C94C618BC
:103950000895CF93C82F882309F46FC08CEF8C0F84
:10396000813AC0F580914D01882311F18091E603E1
:1039700087FF1EC0EC2FE695E695E695F0E0E65E43
:10398000FD4F828190E04C2F477021E030E002C073
:10399000220F331F4A95E2F782239323892B91F05C
:1039A0006C2F8AE192E00E943C080E94810C0AC0C0
:1039B000ECE1F2E082E292E02191C21789F38E17E6
:1039C0009F07D1F76C2F8AE192E00E946608CF91A1
:1039D0000C94810C80E28C0F883068F4C77021E071
:1039E00030E001C0220FCA95EAF780918902822B4C
:1039F00080938902ECCFEBE5EC0FE33040F4F0E08C
:103A0000E556FE4F808190E0CF910C94B108E8E537
:103A1000EC0FE73150F4F0E0EE0FFF1FE256FE4FDF
:103A200080819181CF910C949B08C03F30F08C2F06
:103A30000E943B0ACF910C94C618CF9108951F9312
:103A4000CF93DF93182FD0E0C0E0893311F4C0E5A5
:103A5000D0E0812F0E94A91C209731F4812FDF91A3
:103A6000CF911F910C94701C8FE99FE00197F1F7A3
:103A700000C000002197F0CF0F931F93CF93DF93E7
:103A8000C62FD42F022FFC0182818823A1F06093DE
:103A90001C040E94351890931B0480931A04C7706D
:103AA00081E001C0880FCA95EAF7DF91CF911F919D
:103AB0000F910C94320D80911C04681335C08091D5
:103AC0001A0490911B040E942618883C910560F509
:103AD00010E21D0FCD17B9F080E28C0F883040F452
:103AE000C77081E001C0880FCA95EAF70E94270DD0
:103AF000183048F481E09D2F977001C0880F9A9587
:103B0000EAF70E94320D802F0E941F1D183098F492
:103B1000D77081E001C0880FDA95EAF7DF91CF9185
:103B20001F910F910C94270DC77081E001C0880F81
:103B3000CA95EAF7F3CFDF91CF911F910F910895C6
:103B40003F924F925F926F927F928F929F92AF922D
:103B5000BF92CF92DF92EF92FF920F931F93CF937A
:103B6000DF9300D000D00F92CDB7DEB78C01FC01FF
:103B700083819481892B31F08081918189238F3FCA
:103B800009F091C50F900F900F900F900F90DF915B
:103B9000CF911F910F91FF90EF90DF90CF90BF904A
:103BA000AF909F908F907F906F905F904F903F90DD
:103BB00008950E948713F82E682F89819A810E94A8
:103BC000F90C69817A818F2D0E947A137C01F801AA
:103BD0008281882309F45AC5C70182519F454097C5
:103BE00008F0F5C48FEF93E00E94AF36FEEEEF0EC3
:103BF00057EA852E99249394882381F18091860237
:103C0000877009F4BFCFF8018281882309F4BACF05
:103C100082E00F900F900F900F900F90DF91CF9157
:103C20001F910F91FF90EF90DF90CF90BF90AF90DA
:103C30009F908F907F906F905F904F903F900C94EB
:103C40002519811424E09206C9F2C4010E94AF36FE
:103C5000811101C0EA943FEF831A930AE110F1CF7A
:103C60001C821B82442443944AE0342E74018FEF5B
:103C7000E81AF80AC4010E94AF3689831A828823A1
:103C800009F4BCCF9FEF980F933000F58A834982E7
:103C900092E0890E911CC7010E94AF368B83882366
:103CA00009F4ACCFFE0131967F01F7012081222378
:103CB000E9F2213009F049C091818281913041F4CB
:103CC000F2E0EF0EF11C0E941F1D09C04701EACF70
:103CD000923049F422E0E20EF11C0E94A91C3FEF51
:103CE000E31AF30AE2CF933031F432E0E30EF11C31
:103CF0000E94701CF4CF943021F08FEFE81AF80A7C
:103D0000EECF92E0E90EF11C30E020E0B7016F5FEA
:103D10007F4FF70141818053990B8A30910550F014
:103D200021503109E0F28FE99FE00197F1F700C0DF
:103D30000000F6CF329EF001339EF00D11249C015D
:103D40002E0F3F1F842F7B01E1CFE22FF0E0EC50DC
:103D5000FE4F5490822F86958695869590E0FC01C3
:103D6000EC51FE4F64902770712C022E02C07594A6
:103D700067940A94E2F7E1E06E227724FC01EC52AA
:103D8000FE4FA490B12C022E02C0B594A7940A94C1
:103D9000E2F7F1E0AF22BB24FC01EC53FE4FC490EC
:103DA000D12C02C0D594C7942A95E2F721E0C22213
:103DB000DD246114710419F081EE0E94A91CA11484
:103DC000B10419F086EE0E94A91C852D0E941F1DCA
:103DD000AB2819F086EE0E94701C672819F081EE5E
:103DE0000E94701CCD2809F47ACF8CE26CCF81E060
:103DF0000E9441190E940E1901CF81E00E941919F9
:103E0000F9CF82E0F5CFC701FBC325EFE2162CE521
:103E1000F20609F46CC008F466C027E245EE66EECF
:103E200086EFE8168CE5F80609F42CC4F8018281C7
:103E3000882309F449C410921C04F3E0EF16FDE551
:103E4000FF0608F05BC02AEFE2162CE5F20630F41C
:103E5000C70182509C45449708F056C00E94021446
:103E60009093E7038093E60380E1E8168CE5F8067B
:103E700009F434C108F0A2C0E8E0EE16ECE5FE0655
:103E800009F41AC108F06EC024E0E2162CE5F2062F
:103E900009F404C108F050C082E0E8168CE5F80689
:103EA00009F4F6C08091E603826093E0E9169CE590
:103EB000F90609F4F0C06091E603F090E70384E0AE
:103EC00090E00E94C3366F2D82E290E00E94C336DC
:103ED0000E94501993CE27E245EE65EED3C326E249
:103EE00041EE60EECFC327E245EE64EECBC326E29F
:103EF00041EE62EEC7C328E241E0EFCF31E6E316C0
:103F00003DE5F30609F4AACFE6E1EE16ECE5FE0680
:103F100009F09EC4809189028A7A91E009F490E0C8
:103F200090933B0269E2811165E38AE192E00E948D
:103F300066080E94810C62CE8091E6038061E6E013
:103F4000EE16ECE5FE0609F4A6C08091E603886053
:103F5000F7E0EF16FCE5FF0608F49DC08091E6034C
:103F6000806299C08091E6038D7F2CE0E2162CE5FB
:103F7000F20609F490C060F48AE0E8168CE5F806D1
:103F800009F4A4C008F49CC08091E6038E7F83C02E
:103F90008091E603877FEEE0EE16ECE5FE0609F47D
:103FA0007AC08091E6038B7FFFE0EF16FCE5FF0609
:103FB00008F471C08091E6038F7E6DC02CEFE2168D
:103FC0002CE5F20609F486C0A0F584E1E8168CE53C
:103FD000F80609F497C098F4E2E1EE16ECE5FE0667
:103FE00009F480C08091E6038F7BF3E1EF16FCE5D6
:103FF000FF0608F450C08091E603837F4CC02AEF8F
:10400000E2162CE5F20609F44DC008F051C085E136
:10401000E8168CE5F80609F04ECF8091E60382FBA6
:10402000992790F921E0922790FB82F990FB83F980
:1040300032C0E1149DE5F90609F45AC0A0F480915C
:10404000E7038360FEEFEF16FCE5FF0671F1809158
:10405000E7038D7F2FEFE2162CE5F20630F1809119
:10406000E7038C7F22C032E0E3163DE5F30609F456
:1040700058C008F450C091E6E9169DE5F90609F02C
:104080001ACF9091E603892F8F7E94FF806103C041
:104090008091E60381608093E6030DCF8091E60373
:1040A0008460F9CF8091E70381608093E70303CFB9
:1040B0008091E7038260F9CF8091E6038064EBCFC3
:1040C0000E9450198091E6038068E5CF8091E60355
:1040D0008C60E1CF8091E7038E7FE7CF8091E6038C
:1040E0008F7DD9CF0E9450198091E6038F77D3CF6F
:1040F0008091E703982F909591708E7F892B90FB8C
:1041000081F9D3CF0E9450199091E603892F97FB34
:1041100087F98058C0CF61E08EE090E00E94C336FE
:10412000CACE60E0F9CF80913B0269E2811165E37C
:104130008AE192E00E943C08FCCE81608093CC032F
:1041400061E086950E94651859CD45EA58E16EEA0E
:1041500078E10E94C70852CD4EEA58E165EA78E15D
:10416000F8CF46E055E16DEF74E1F3CF45EE54E151
:1041700061EF74E1EECF4DEC54E169ED74E1E9CF0C
:1041800049ED54E16DEC74E1E4CF40E255E16FE0BC
:1041900075E1DFCF61E081E0D5CF65E082E00E948C
:1041A000B8182CCD68E086E0FACF64E18FE0F7CF55
:1041B00067E185E1F4CF62E289E1F1CF61E083E27A
:1041C000C1CF0E9450198FEF94E3ECE081509040F2
:1041D000E040E1F700C000000E941F0881E05EC3DC
:1041E00080E05CC3C7010E94D00CD82E68C32F2D7D
:1041F0002F70C22E8F2D807F19F0C29490EFC922AC
:10420000DD20C9F0CC2069F080E28E0D883010F0FE
:1042100081100BC080918902C82AC09289020E9435
:10422000810C8E2D0E94A91C19C080918802C82A79
:10423000C0928802F4CF8E2D0E94701CCC2071F0A9
:10424000C09480E28E0D883010F081103DC08091C6
:104250008902C822C09289020E94810C292D28500F
:10426000330B2430310510F40E949E12AA2009F469
:1042700089CC8091860280FD85CCF80112828595DB
:10428000859585950E944119C8010E94A01D8091C5
:1042900086028595859585950F900F900F900F90CC
:1042A0000F90DF91CF911F910F91FF90EF90DF90D2
:1042B000CF90BF90AF909F908F907F906F905F90C6
:1042C0004F903F900C94191980918802C822C09297
:1042D0008802C2CF3F2D3F70B32E8F2D807F80325A
:1042E00019F0B29480EFB822882071F081E088162E
:1042F00081F1DD20D9F1CC2091F1F801858180FF99
:1043000090CF8F7085832BC0DD20B1F090918A0211
:104310008B2D892BC11003C00E94320D9FCFE1E08D
:10432000CE12FACF2091E70322FD98CF981709F417
:1043300095CF80938A0292CFC11006C00E947B0C59
:104340008B2D0E94270D8ACFF1E0CF1609F486CF7E
:10435000F5CFDD2031F025E02C1508F47FCF8B2D33
:10436000DBCF34E03C1508F479CFEACFCC2041F321
:10437000F9E38F1209C02FEF37EE83E02150304070
:104380008040E1F700C000008E2D0E94701C66CFB7
:104390008F2D86958695837061F0813009F05ECF10
:1043A000C7019370D11002C090E080E00E949B088A
:1043B00055CFC7019370D11002C090E080E00E94F9
:1043C000B1084CCF8E2DDD2029F00E943B0A0E94BF
:1043D000C61844CF0E948009FACF8F2D837091F5C3
:1043E000D1103CCF4E2D429546954770440F440F57
:1043F0008E2D8F70042E01C0880F0A94EAF72E2D9F
:104400002071E4FE07C02FE030E001C0220F4A9582
:10441000EAF720953F2D369536953370323069F0A6
:1044200050F440918B02313029F0822B84230E947A
:104430004C1914CF842B822BFACF282B80918B021E
:104440008227F5CF8695DD2011F08F2D817088238E
:1044500009F404CF4E2D429546954770440F440F02
:104460008E2D8F70042E01C0880F0A94EAF72E2D2E
:104470002071E4FE07C02FE030E001C0220F4A9512
:10448000EAF720953F2D369536953370323069F036
:1044900050F440911D04313029F0822B84230E9476
:1044A0000A19DCCE842B822BFACF282B80911D0495
:1044B0008227F5CF9F2D9F70F92EDD2029F0892FBF
:1044C0000E9441198E2D28CF8E2D0E94270D8F2DF1
:1044D0000E941919C3CE8E2DE2EF8E1609F44BC03F
:1044E000E81570F0F0EF8F1639F121EF8216D9F14F
:1044F000DD2009F45CC0C11094CE8F2D8F7138C0BF
:1045000033EF8316E9F194EF8912F2CFDD2009F43D
:1045100043C02F2D2F71F22E822F0E9441198091BE
:10452000E70382FD07C038E0F39EC00111248360D9
:10453000809386028F2D1CC0DD2081F0E4E0EC1515
:1045400008F48CCE2F2D2F7181E090E001C0880FF0
:104550002A95EAF790911D048927A1CFF5E0FC1573
:1045600008F47CCEEFCF8F2D8F71DD2009F4B0CF12
:104570000E94411973CE8F2D8F71DD20C9F3A8CF12
:1045800080E0DD2009F48BCF9F2D9F7181E001C079
:10459000880F9A95EAF783CF81E00E94251981E080
:1045A0008C1508F05BCE82E00E94251957CECC20F6
:1045B00059F0893309F0E8CE9FEFE7EEF3E0915030
:1045C000E040F040E1F7DECE8F2D8F7181CFF0E13A
:1045D000EF16FFE5FF0609F40ACC21E1E2162FE50C
:1045E000F20609F40ECCC70190568115E0E29E0751
:1045F00028F0905E8115904108F005CCC7019927FD
:1046000020E28C33910520F4FC01E15AFE4F208119
:104610001F922F939F938F93F80180811F928F9306
:1046200081811F928F938EE491E09F938F931F92CD
:1046300088E18F9383EC92E09F938F930E941034D4
:104640000FB6F894DEBF0FBECDBF33EFE3163CE5E7
:10465000F30609F444CC08F0D8CB98EDE9169CE5B4
:10466000F90609F438CCE9EDEE16ECE5FE0609F49E
:1046700042CCF7EDEF16FCE5FF0609F0D7CB26E2BA
:1046800041EE61EEC8010E943C1DB8CA30E1E3165C
:104690003FE5F30609F4B1CB81E1E8168FE5F806B2
:1046A000A1F682E0ABCB85E0DE01119601900D9280
:1046B0008A95E1F7F801228189819A81211179CACD
:1046C0000E94D00CF82E7DCAF6E1EF16FCE5FF063D
:1046D00009F429CD8091890282722CECE2162CE536
:1046E000F20609F452CD08F073C096ECE9169CE589
:1046F000F90609F436CD08F042C0F3ECEF16FCE5FC
:10470000FF0609F422CD50F532ECE3163CE5F30642
:1047100009F0C6C08091CC0380FF0FCD8E7F8093BF
:10472000CC036091CC037091CD038091CE03909126
:10473000CF030E9410140E94CD088091260381604F
:1047400080932603FFEF20E732E0F1502040304015
:10475000E1F700C000000E94E80E50CA94ECE91690
:104760009CE5F90609F4F8CC4DEF54E166E075E1FB
:10477000E5ECEE16ECE5FE0609F4EBCC91C0F9ECA5
:10478000EF16FCE5FF0609F4F6CC88F437ECE316E7
:104790003CE5F30609F4EACC41EF54E165EE74E13F
:1047A00098ECE9169CE5F90609F4D3CC79C0EAEC5B
:1047B000EE16ECE5FE0609F4E3CC4FE055E160E2CD
:1047C00075E1FBECEF16FCE5FF0609F4C2CC68C00E
:1047D00021EDE2162CE5F20609F4E7CCB8F48EECF4
:1047E000E8168CE5F80609F4D8CC08F4D3CCEFEC45
:1047F000EE16ECE5FE0609F4D5CC6EE089E0F0EDAE
:10480000EF16FCE5FF0609F4CACC4AC024EDE21617
:104810002CE5F20609F4CFCC78F482EDE8168CE5AD
:10482000F80609F4C5CC61E088E193EDE9169CE552
:10483000F90609F487CC34C0E5EDEE16ECE5FE068A
:1048400009F4BCCCFDE5EF16FF0609F4D7C928C072
:104850002AE5E2162DE5F20609F4C0CC68F4E1146D
:104860008CE5F80609F4ADCC9EEDE9169CE5F90659
:10487000B9F40E944915C2C9EBE5EE16EDE5FE0656
:1048800009F4AECCFCE5EF16FDE5FF0649F4809196
:10489000E70382FB882780F991E089270E943A1379
:1048A000F8018281E080F180882309F49BCCC70164
:1048B0000E948713D82E682FC7010E94F90CB701F8
:1048C0008D2D0E947A130E94F30A7C01882EF80134
:1048D000D280C580C2943FE0C32280918602877057
:1048E000A1F0AD2CDD2091F08F2D807F803421F060
:1048F00080E28E0D883048F082E00E942519809178
:1049000086028770AA24A3948111A12C9F2C9294D3
:104910002FE09222FBE0F91508F4A0CCE92DF0E09D
:10492000EF5EF84C0C946F331F93CF93DF9380911D
:104930005302807FA9F480915002882389F08091EE
:104940008502D091540260914E0270914F02A09165
:104950005102B0915202C62FC72316E0D81304C0EB
:10496000DF91CF911F91089590E0109711F0CF3F04
:1049700019F401968770F2CF189F9001199F300D9E
:104980001124F901EB5AFD4F41814713F2CF4081C9
:104990004613EFCF42814111ECCF438154814A1B32
:1049A0005B0B483C510528F7809153028F70806162
:1049B00080935302F901E65AFD4F80818F70806128
:1049C00080838EE492E00E94A01DDF91CF911F9121
:1049D0000C94C60CAF92BF92CF92DF92EF92FF92EF
:1049E0000F931F93CF93DF93CDB7DEB761970FB6C9
:1049F000F894DEBF0FBECDBF8C0185E0F801DE016B
:104A00001D9601900D928A95E1F7F801E2808EE4FF
:104A1000A82E82E0B82E6091510270915202611569
:104A2000710509F432C190914E0240914F02892FD5
:104A300084238F3F09F429C120813181C380D48030
:104A4000F0905002F601E61BF70BFF2009F4E8C0D6
:104A500080915302582F507FE83CF10508F0ABC01D
:104A6000511177C0FE2C431321C092131FC0E110D7
:104A70001DC08F70806180935302C5010E94A01DEC
:104A800080915302F80185838F2D61960FB6F894BB
:104A9000DEBF0FBECDBFDF91CF911F910F91FF9071
:104AA000EF90DF90CF90BF90AF900895CD2829F080
:104AB000822F83238F3F09F003C180E0F82FF1702C
:104AC000DF2E80FF3CC0809185024091540256E069
:104AD000841315C02D873E878D859E850E94B61351
:104AE000292F22952F702230F0F0243018F59F7076
:104AF000F1F0F8019581907FD1F4D12C1EC090E0A7
:104B0000589FF001599FF00D1124EB5AFD4F618120
:104B1000361306C06081261303C06281E6120FC0FF
:104B200001968770D5CF9F7011F0882331F3805E96
:104B3000883018F3C8010E94A01DFD2CA5CFEE20DF
:104B400009F4A2CF80915302816080935302F12C2B
:104B50009BCF431306C0921304C0F801EE2009F462
:104B600079C0C8010E94C213882309F1EE20F9F030
:104B700080915302803270F020914E0230914F02AA
:104B800038872F831986DB86CA868C87CE010796E5
:104B90000E94A01D86E0F801AEE4B2E001900D9203
:104BA0008A95E1F70E949424FF24F3946DCFC80105
:104BB0000E94A01DF9CF51110AC08EE492E00E941C
:104BC000A01D86E0F50111928A95E9F7C0CF431345
:104BD0000FC092130DC0E1100BC0F8018583C8010E
:104BE0000E94A01D86E0F50111928A95E9F74CCF4D
:104BF000C8010E94C2138823D1F2EE20C1F2809135
:104C00005302803238F220914E0230914F023A83A3
:104C100029831B82DD82CC828E83CE010196B8CFA0
:104C2000E83CF105F8F6FE2CEE2009F243131FC014
:104C300092131DC08091530280FD10C0982F907F69
:104C400069F0F8018583903F31F0982F907F905F55
:104C50008F70892B8583C8010E94A01D86E0F80112
:104C6000AEE4B2E001900D928A95E1F70DCFC80154
:104C70000E94C21381118ECF809153028160809374
:104C80005302C8010E94A01DFFCEEE2009F48FCF71
:104C9000C8010E94C213F82E882309F488CF86E049
:104CA000F801AEE4B2E001900D928A95E1F78091AF
:104CB0004E0290914F020E94B6130E949424E4CEBB
:104CC00081E08E25FBCE1F93CF93DF93CDB7DEB768
:104CD00067970FB6F894DEBF0FBECDBF4B8B5C8BD2
:104CE0006D8B7E8B8F8B6111109288021A8A198AC4
:104CF00085E0FE017396DE011D9601900D928A9566
:104D0000E1F786E0FE013D96DE01179601900D92D7
:104D10008A95E1F7CE0107960E94EA24882389F05C
:104D200016E08091850290915402891349C06796DC
:104D30000FB6F894DEBF0FBECDBFDF91CF911F91AC
:104D4000089586E0FE013796DE01119601900D92DE
:104D50008A95E1F78A859B85892B11F38F81988548
:104D600089238F3FE9F22091540230E0C901019676
:104D700087709927409185024817190671F40E949F
:104D80005019109254021092850286E0EEE4F2E08F
:104D9000DF011D928A95E9F7C3CF96E0929FD0017B
:104DA000939FB00D1124AB5ABD4FFE013196019077
:104DB0000D929A95E1F7809354020E94C60CB0CFF1
:104DC000819FC00111248B5A9D4F0E94EA248823A1
:104DD00009F4ADCF8091850290E001968770992704
:104DE000809385029ECF9F92AF92BF92CF92DF9227
:104DF000EF92FF920F931F93CF93DF93CDB7DEB760
:104E00002C970FB6F894DEBF0FBECDBFAE014F5F3B
:104E10005F4F7A0188E0FA0111928A95E9F78EECEA
:104E2000C82E81E0D82E10E000E0AA24A394B12C73
:104E3000F60181916F018F3F09F44AC0F894E82F81
:104E4000E295EF70F0E021A18F70A50102C0440F40
:104E5000551F8A95E2F7CA01922F982B91A392A130
:104E60008095892382A30E94970A00C0E6EDF1E0B5
:104E700030E020E0912C41914F3F09F4BCC0A42FB9
:104E8000A295AF70B0E090968C9190E04F7002C008
:104E9000959587954A95E2F780FDADC08A2D022E43
:104EA00001C0880F0A94EAF7982A2F5F3F4F2630F7
:104EB000310509F7F601319780818F3F11F00E948B
:104EC000990A50EA5A95F1F7F701E00FF11F908225
:104ED0000F5F1F4F0430110509F0AACF48E050E0E2
:104EE000B70185EB92E00E94FA338C01892B41F0E7
:104EF00088E0F701A5EBB2E001900D928A95E1F709
:104F0000E091BE02F0E0E75FFC4F8091B502808344
:104F10008091B60281838091B70282838091B8022A
:104F200083830115110509F07BC00E946012F82EE1
:104F3000E091BE02882309F487C019861A861B8671
:104F40001C860E2F10E0075F1C4F8091B4028A3040
:104F500008F053C048E756E1BE01675F7F4FC801C4
:104F60000E941C12882309F45EC043EB55E1BE0188
:104F7000675F7F4FC8010E941C12882309F453C049
:104F80004CE056E1BE01675F7F4FC8010E941C12D2
:104F9000882309F448C01092B402A091BD02B0E089
:104FA000A75FBC4FBE01675F7F4F9E01235F3F4FEE
:104FB00000E09D91FB018191BF01981731F0AD0197
:104FC00041505109FA0180830F2D2617370789F7C1
:104FD000802F2C960FB6F894DEBF0FBECDBFDF91A9
:104FE000CF911F910F91FF90EF90DF90CF90BF90E6
:104FF000AF909F90089580E057CF80918C02909160
:105000008D020E942618843F914008F0A3CFE091C2
:10501000BD02F0E0E75FFC4F108211821282138222
:1050200001E010E0D5CF8091B4028F3F31F08F5F67
:105030008093B4028A3008F4B0CF0E943518909360
:105040008D0280938C02E3CFF0E0E75FFC4FF89491
:1050500084E0A0EAB2E001900D928A95E1F780EA3F
:1050600092E00E947B0680939F020E94970AF89428
:10507000C090A402D090A502E090A602F090A702F2
:1050800080918E0290918F02A0919002B091910236
:10509000C816D906EA06FB06D1F0C0928E02D0925D
:1050A0008F02E0929002F09291020E9460128111B0
:1050B0000EC00E943008C61AD70AE80AF90AC09240
:1050C000DD03D092DE03E092DF03F092E0030E9462
:1050D000970AF8948091AF02882379F180FF0DC080
:1050E0008091A80280FF2CC09091CC039160909396
:1050F000CC0360E086950E9465188091AF0281FF25
:1051000009C020E04091AB026091AA028091A902FF
:105110000E9422148091AF0282FF06C08091AE02ED
:10512000882389F00E944A188091AF0283FF03C050
:1051300081E0809321031092AF020E94970A48CF2A
:105140000E940512DACF0E94CD08EECF1F921FB643
:105150001F9211248F939F93AF93BF938091E1038C
:10516000811113C08091E2039091E303A091E403C5
:10517000B091E5034196A11DB11D8093E203909388
:10518000E303A093E403B093E503BF91AF919F9134
:105190008F911F901FBE1F901895CDB7DEB7AC97AB
:1051A0000FB6F894DEBF0FBECDBF84B7877F84BF34
:1051B0000FB6F894A8958091600088618093600094
:1051C000109260000FBE80E890E00FB6F8948093D4
:1051D0006100909361000FBE85B7806885BF85B779
:1051E000806885BF85E99AE0909319028093180240
:1051F0000E9492060E945D078091E2008460809385
:10520000E2007894809110048823A1F01091E900C5
:105210001F709091EC00892F817090FD80E8182B11
:105220001092E9008091E80083FD0E9465191F70CB
:105230001093E90082E084BD93E095BD9AEF97BD9D
:1052400080936E001092DD031092DE031092DF0354
:105250001092E0030E94E913811102C00E942B13F7
:105260000E9460128093280180912801882309F40C
:1052700070C0109248018BE1809349010E94601236
:1052800081110E944A31809128018091280194E087
:10529000811190E09093BE0284E0891B8093BD024F
:1052A00084E90E94990A86E60E94990A87E90E9489
:1052B000990A86EC0E94990A06ED11E0ACEDEA2EFF
:1052C000A1E0FA2ED8018D918D018F3F11F00E943F
:1052D000990AE016F106B1F7E5EBF2E08DEB92E00A
:1052E000A9E0B3E011921D928E179F07D9F70E9493
:1052F0002017811102C00E94491582E090E00E94AF
:10530000AF36809300030E9402149093E7038093CA
:10531000E6030E94F326BFEFE6E7F1E0B150E0407C
:10532000F040E1F700C000000E94F3260E946012E6
:10533000E4E08111E0E0F0E0E75FFC4F808181FF75
:105340000CC06FEF7FEF90E080E00E94E1360E949A
:105350001F088BE1809348018FCF83E090E00E948B
:10536000AF360E944C190E946012811102C00E9447
:105370004D310E946012811194C282E08093FB0241
:1053800080E880931E040E94E22F6DE070E087E8C1
:1053900092E00E94FD0D892BE9F58091FB0263E00C
:1053A00070E081FD80C284E892E00E94FD0D892BAF
:1053B00089F56DE070E084E792E00E94FD0D892B95
:1053C00049F50E943008605A75418F4F9F4F609396
:1053D000D1037093D2038093D3039093D403E1E27B
:1053E000F4E080E092E0DF019C011D92215030400A
:1053F000E1F7F0932806E09327068FEF9FEF909355
:10540000200480931F0481E08093D6038093D5030A
:105410001092FC028091BF02811138C00E942017B7
:10542000811104C00E9449150E94311588E090E066
:105430000E94B7366093CC037093CD038093CE0364
:105440009093CF03809126038360809326036E7F21
:1054500071F40E94311588E090E00E94B7366093A5
:10546000CC037093CD038093CE039093CF030E941F
:10547000D4080E94CD088091CC0380FF04C060E076
:1054800086950E94651881E08093BF0289E291E0D1
:105490009093DA038093D903F1E14F2EF3E05F2E6E
:1054A0008091100400E112E1853009F435C20E94B8
:1054B000F326D82E81110E94300801E013E0E9E0C4
:1054C000EE2EE3E0FE2EB12CA12CF70171907F01AE
:1054D000D8018C90871461F18724912CCC24C3943B
:1054E000882D8C2101F10E9460128823A1F099A2DD
:1054F000AAA291E0872D8C2109F490E09BA30E9441
:1055000035188160782F9DA38CA349A15AA16BA166
:105510008DA10E946326F80180818C258083B3943D
:10552000FBE0FB15E8F09394CC0C26E09212D8CF68
:10553000A3940F5F1F4F38E0A312C7CFB11010C064
:105540008FEF8EA38FA318A60E9435188160782F45
:105550009AA789A74EA15FA168A58AA50E94632684
:1055600080912503882309F464C080912403E0918D
:10557000CC03E695E81BE0932003823009F0D6C106
:10558000F0E0EE55FD4FE4910E2F10E071EFE72EA5
:1055900071E1F72E80912103882361F0109221039D
:1055A0000E94411890931F0380931E0310922303BF
:1055B000109222030E944118E0911E03F0911F03F4
:1055C0009C012E1B3F0B2F3F3F4798F52091C202B5
:1055D0002223B1F01092C2022091C0023091C10288
:1055E000821B930B8F3F9F4758F4205D3A483093BE
:1055F000C1022093C0028091260388608093260315
:10560000A0902203B0902303E00FF11FF0931F033B
:10561000E0931E038EE193E0F70109958091220348
:1056200090912303892B29F4AB2819F081E0809312
:10563000C2028091D6038823B1F18091FD0290913E
:10564000FE020E942618C29708F0CAC120911F04CA
:10565000309120042115310509F010C28091D50345
:10566000882309F10E9430080091D1031091D203E0
:105670002091D3033091D403601B710B820B930BE9
:105680006F3F7F4F8F4F9F4770F48091D6038823E1
:1056900051F062E070E089E093E00E94FD0D892BFB
:1056A00011F41092D503D1100E942D0E86E0E8E18E
:1056B000F3E0DE01119601900D928A95E1F7F090EA
:1056C0001A03E0901B0310911C0300911D0310921C
:1056D0001A0310921B0310921C0310921D038F2DAE
:1056E0008E2909F448C080911603909117030E94F7
:1056F00026189C0190911203992309F45FC4253167
:105700003105C8F19F3F19F09F5F90931203FF206E
:1057100059F00E941B0A9FEF1F140CF491E0899F1F
:10572000802D112480931A03EE2059F00E941B0A49
:105730009FEF1E140CF491E0899F802D112480931B
:105740001B0330911A033323B1F020911B03222352
:1057500091F045EB3403C0011124992309F460C290
:1057600090931A0345EB240390011124332309F489
:105770005BC230931B03812F802B09F448C08091BA
:105780001403909115030E9426189C019091110317
:10579000992309F40FC425363105C8F19F3F19F04C
:1057A0009F5F90931103112359F00E94F9099FEF15
:1057B00011160CF491E0899F802D112480931C0315
:1057C000002359F00E94F9099FEF10160CF491E0A4
:1057D000899F802D112480931D0330911C03332356
:1057E000B1F020911D03222391F045EB3403C00159
:1057F0001124992309F41CC290931C0345EB240344
:1058000090011124332309F417C230931D038091B2
:105810001A0390911B03892B90911C03892B909163
:105820001D03892B11F00E94C61886E0FE013196F7
:10583000A8E1B3E001900D928A95E1F70E949E12D3
:105840009091FF02891721F00E949E128093FF021F
:1058500080911004843009F023CE83E08093E90026
:105860008091E80082FF1CCE8091E80090E085FFE7
:1058700006C00E94B106882309F4E2C191E080913C
:10588000E8008B778093E800992309F409CEE98139
:10589000E150E33108F044C2F0E0E35EF84C0C94D0
:1058A0006F3380E06BCD81E892E07FCD8091100472
:1058B000843021F11092E10388E190E0A0E40FB67A
:1058C000F894A895809360000FBEA093600083B702
:1058D000817F846083BF83B7816083BF789488951C
:1058E00083B78E7F83BF0FB6F894A8958091600030
:1058F000886180936000109260000FBE80910F0459
:10590000882351F00E94F326E9E0F3E081918111B0
:1059100032C34E165F06D1F780911004853009F42A
:10592000C5CF0E9450190E949E12C1CD863059F4F5
:10593000F0E0E156FD4FE4910E2F10E061EEE62E0F
:1059400061E1F62E27CE893061F4E695F0E0E45669
:10595000FD4FE4910E2F10E05CE2E52E51E1F52EB3
:1059600019CE8F3061F4E695F0E0E756FD4FE491F3
:105970000E2F10E040E9E42E40E1F42E0BCE8531ED
:1059800059F4F0E0EA56FD4FE4910E2F10E036E0B6
:10599000E32E30E1F32EFECD8831D9F0833249F485
:1059A000E4E9F2E00591149125E8E22E21E1F22EDE
:1059B000F1CD04EF11E093E3E92E9FE0F92E84325C
:1059C00009F4E8CD00ED17E0BCECEB2EB8E0FB2EBF
:1059D000E1CD08E210E083E7E82E8FE0F82EDACD83
:1059E0000E9435189093FE028093FD0281E294E0BC
:1059F00090932806809327060E9460128823C9F19D
:105A000081EC92E00E94BD0DE0911D04EF3060F446
:105A1000F0E0E05DF84C0C946F3389EB92E00E946B
:105A2000BD0D81E00E94CB0D03EC12E0D8010D907A
:105A30000020E9F78D0101501109A3ECEA2EA2E044
:105A4000FA2EE016F10678F08091D603882309F447
:105A500005CEFCCD83EB92E0E2CF8DEA92E0DFCF82
:105A600086EA92E0DCCFF70181917F010E943C0D34
:105A7000E8CF89EC92E00E94BD0DE6CF8091FC0258
:105A800061E070E08111EACD082F10E07B01082E63
:105A900002C0EE0CFF1C0A94E2F7A9014E215F211F
:105AA000452B09F447C09091FB0290FD45C08295BB
:105AB000880F807680933501980136952795369525
:105AC000279520933801815E809336011092390129
:105AD00024E630E047E050E063E371E088E70E94AD
